:020000040800F2
:100000000028002019120008A9110008AF110008EB
:10001000B5110008BB110008C11100080000000064
:10002000000000000000000000000000C7110008F0
:10003000D311000800000000DF110008EB110008D8
:1000400061120008611200086112000861120008C4
:1000500061120008611200086112000861120008B4
:1000600061120008611200086112000861120008A4
:100070006112000861120008611200086112000894
:100080006112000861120008611200086112000884
:100090006112000861120008611200086112000874
:1000A0006112000861120008611200086112000864
:1000B000F911000861120008000000006112000838
:1000C000611200080000000000000000611200083A
:1000D000000000006112000861120008000000002A
:1000E000611200086112000861120008000000009F
:1000F0000000000000000000000000000000000000
:0C01000000000000000000005FF808F1A3
:10010C0010B5054C237833B9044B13B10448AFF345
:10011C0000800123237010BD70000020000000003F
:10012C009028000808B5034B1BB103490348AFF3F3
:10013C00008008BD0000000074000020902800081A
:10014C0080B483B000AF7860094A7B6852F82330E2
:10015C00012B06D1064A7B68002142F823100123AB
:10016C0000E0002318460C37BD4680BC704700BF2A
:10017C008C00002080B582B000AF00237B606FE064
:10018C003B4A7B6852F823203A497B6841F823208C
:10019C00394A7B6852F8232035497B6841F8232083
:1001AC00364A7B6852F8232035497B6831F8133086
:1001BC001946104601F03AFB034619462E4A7B6855
:1001CC0042F823102B4A7B6852F8232028497B687D
:1001DC0051F823309A4240D1254A7B6852F82320AB
:1001EC0025497B6851F823309A4236D1254A7B68E1
:1001FC0052F8232020497B6851F823309A4218D0BA
:10020C001D4A7B6852F823201E497B6841F8232045
:10021C00194A7B6852F82330002B1ED11A4A7B688E
:10022C00322142F82310194A7B68012142F823102D
:10023C0013E0154A7B6852F823305A1E12497B682A
:10024C0041F82320104A7B6852F82330002B04D14C
:10025C000C4A7B68012142F823107B6801337B60D8
:10026C007B68022B8CDD00BF00BF0837BD4680BD0C
:10027C0020000020140000202C000020080000208A
:10028C000000002038000020440000208C000020DA
:10029C0080B582B000AF78607B68092B00F2C88112
:1002AC0001A252F823F000BFDD020008330300085E
:1002BC0089030008DF030008350400088B040008DC
:1002CC00E1040008370500088D050008E305000867
:1002DC0000224FF48071D54801F0BFFA00224FF490
:1002EC000071D24801F0B9FA00224FF48061CF4876
:1002FC0001F0B3FA00224FF40061CC4801F0ADFAE2
:10030C0000224FF48051C94801F0A7FA00224FF4A3
:10031C000051C64801F0A1FA01224FF48041C348B4
:10032C0001F09BFA85E101224FF48071BF4801F086
:10033C0094FA00224FF40071BC4801F08EFA0022AE
:10034C004FF48061B94801F088FA01224FF4006142
:10035C00B64801F082FA01224FF48051B34801F003
:10036C007CFA01224FF40051B04801F076FA0122D8
:10037C004FF48041AD4801F070FA5AE100224FF47D
:10038C008071AA4801F069FA00224FF40071A74865
:10039C0001F063FA01224FF48061A44801F05DFA88
:1003AC0000224FF40061A14801F057FA00224FF4EB
:1003BC0080519E4801F051FA01224FF400519B48A4
:1003CC0001F04BFA00224FF48041984801F045FAB5
:1003DC002FE100224FF48071944801F03EFA002284
:1003EC004FF40071914801F038FA00224FF480610B
:1003FC008E4801F032FA00224FF400618B4801F074
:10040C002CFA01224FF48051884801F026FA01227F
:10041C004FF40051854801F020FA00224FF480413E
:10042C00824801F01AFA04E101224FF480717F48EE
:10043C0001F013FA00224FF400717C4801F00DFA20
:10044C0000224FF48061794801F007FA01224FF441
:10045C000061764801F001FA01224FF48051734893
:10046C0001F0FBF900224FF40051704801F0F5F94E
:10047C0000224FF480416D4801F0EFF9D9E00022E1
:10048C004FF48071694801F0E8F901224FF40071D2
:10049C00664801F0E2F900224FF48061634801F0F4
:1004AC00DCF900224FF40061604801F0D6F901221A
:1004BC004FF480515D4801F0D0F900224FF4005107
:1004CC005A4801F0CAF900224FF48041574801F014
:1004DC00C4F9AEE000224FF48071544801F0BDF92C
:1004EC0001224FF40071514801F0B7F900224FF48A
:1004FC0080614E4801F0B1F900224FF400614B4885
:10050C0001F0ABF900224FF48051484801F0A5F9F5
:10051C0000224FF40051454801F09FF900224FF49E
:10052C008041424801F099F983E000224FF4807138
:10053C003E4801F092F900224FF400713B4801F063
:10054C008CF900224FF48061384801F086F90122C1
:10055C004FF40061354801F080F901224FF48051CD
:10056C00324801F07AF901224FF400512F4801F082
:10057C0074F901224FF480412C4801F06EF958E0D7
:10058C0000224FF48071294801F067F900224FF4E2
:10059C000071264801F061F900224FF48061234874
:1005AC0001F05BF900224FF40061204801F055F98D
:1005BC0000224FF480511D4801F04FF900224FF4F6
:1005CC0000511A4801F049F900224FF480411748B4
:1005DC0001F043F92DE000224FF48071134801F033
:1005EC003CF900224FF40071104801F036F900225A
:1005FC004FF480610D4801F030F900224FF4006196
:10060C000A4801F02AF901224FF48051074801F001
:10061C0024F900224FF40051044801F01EF9002285
:10062C004FF48041014801F018F902E00008014044
:10063C0000BF00BF0837BD4680BD00BF80B582B08B
:10064C0000AF78607B685A4203F0030302F00302A8
:10065C0058BF5342032B73D801A252F823F000BFAA
:10066C007D060008B1060008E50600081907000819
:10067C0000220121354801F0F0F801220221334813
:10068C0001F0EBF801220421304801F0E6F80122D8
:10069C0008212E4801F0E1F82D4B1B681846FFF796
:1006AC00F7FD4EE000220221284801F0D6F8012285
:1006BC000121264801F0D1F801220421234801F040
:1006CC00CCF801220821214801F0C7F8204B5B68C7
:1006DC001846FFF7DDFD34E0002204211B4801F031
:1006EC00BCF801220121194801F0B7F801220221BE
:1006FC00164801F0B2F801220821144801F0ADF8B7
:10070C00134B9B681846FFF7C3FD1AE00022082123
:10071C000E4801F0A2F8012201210C4801F09DF8CD
:10072C0001220221094801F098F80122042107480E
:10073C0001F093F8064BDB681846FFF7A9FD00E0C3
:10074C0000BF00BF0837BD4680BD00BF0008014098
:10075C009800002080B400AF1A4B1B681A4A82FB29
:10076C0003129210DB17D31A184A1360154B196831
:10077C00154B83FB01239A10CB17D21A13469B00FF
:10078C0013445B00CA1A114B5A60114B1B680E4A7A
:10079C0082FB03129210DB17D31A0C4A93600C4B9A
:1007AC001968094B83FB01239A10CB17D21A1346F5
:1007BC009B0013445B00CA1A044BDA6000BFBD46B1
:1007CC0080BC7047AC00002067666666980000200D
:1007DC00B000002080B500AFFFF7BCFF144B5B6886
:1007EC00012B12D1134B1B68002B0ED0124B1B6824
:1007FC00013B114A1360114B1B68013B0F4A1360FC
:10080C004FF47A71012000F025FC094B9B68012BF9
:10081C000BD10B4B1B685A1C09490A601846FFF791
:10082C000DFFFA21022000F015FC00BF80BD00BFB7
:10083C00C40000205C000020AC000020B0000020B0
:10084C00B400002080B500AF012220210E4801F039
:10085C0004F8012280210C4800F0FFFF0122402106
:10086C00094800F0FAFF01220821084800F0F5FFC2
:10087C0001222021054800F0F0FF0122102103483D
:10088C0000F0EBFF00BF80BD00080140000C0140F0
:10089C0080B500AF984B1B680C2B00F27B8201A239
:1008AC0052F823F0E508000815090008B7090008FC
:1008BC00610A00082D0B0008A10D0008A10D00080D
:1008CC00A10D0008A10D0008A10D0008D70B000810
:1008DC00E10C00085D0C0008FFF7B4FF864B012209
:1008EC001A60864B1B68864A1360864B1B68864AC7
:1008FC001360854B1B684FF47A7202FB03F31946A5
:10090C00002000F0A7FB54E2002220217F4800F0D9
:10091C00A4FF012280217D4800F09FFF012240218D
:10092C007A4800F09AFF01220821794800F095FFDF
:10093C0000222021764800F090FF012210217448FB
:10094C0000F08BFF734B1B68012B10D16A4B0222FA
:10095C001A60714B1B686C4A13606B4B1B684FF42D
:10096C007A7202FB03F31946002000F073FB00209F
:10097C00FFF7E6FB0346012B40F00E82FFF762FF08
:10098C005D4B0A221A605D4B1B685D4A13605E4B1F
:10099C0002221A60614B1B68C3F101035F4A1360AA
:1009AC00FA21002000F056FBF6E1002220215748E6
:1009BC0000F053FF01228021544800F04EFF012229
:1009CC004021524800F049FF01220821504800F014
:1009DC0044FF012220214E4800F03FFF002210214D
:1009EC004B4800F03AFF4B4B1B68012B14D1424B88
:1009FC0003221A60434B1B68414A13603F4B1B6830
:100A0C00414A13603E4B1B684FF47A7202FB03F3AE
:100A1C001946002000F01EFB0020FFF791FB034657
:100A2C00012B40F0BB81FFF70DFF334B0A221A60FC
:100A3C00324B1B68324A1360334B02221A60374B1D
:100A4C001B68C3F10103354A1360FA21002000F042
:100A5C0001FBA3E1012220212C4800F0FEFE002224
:100A6C0080212A4800F0F9FE01224021274800F09D
:100A7C00F4FE00220821264800F0EFFE012220217E
:100A8C00234800F0EAFE01221021214800F0E5FE87
:100A9C00204B1B68012B10D1174B04221A601E4BE4
:100AAC001B68174A1360164B1B684FF47A7202FBD3
:100ABC0003F31946002000F0CDFA0020FFF740FBAD
:100ACC000346012B40F06C81FFF7BCFE0A4B0A2257
:100ADC001A600A4B1B680A4A13600B4B02221A60FD
:100AEC000E4B1B68C3F101030C4A1360FA21002062
:100AFC0000F0B0FA54E100BFA80000205000002024
:100B0C00AC00002058000020B0000020000801407C
:100B1C00000C0140C4000020540000205C000020A8
:100B2C0001222021A44800F098FE01228021A24835
:100B3C0000F093FE002240219F4800F08EFE002220
:100B4C0008219E4800F089FE012220219B4800F0DC
:100B5C0084FE01221021994800F07FFE984B1B68FF
:100B6C00012B14D1974B01221A60974B1B68974AA3
:100B7C001360974B1B68974A1360964B1B684FF496
:100B8C007A7202FB03F31946002000F063FA00208E
:100B9C00FFF7D6FA0346012B40F00481FFF752FE13
:100BAC00884B0A221A60884B1B68884A1360894B51
:100BBC0002221A60884B1B68C3F10103864A13603A
:100BCC00FA21002000F046FAECE07D4B1B68012B6B
:100BDC000BD12021784800F058FE0821774800F00E
:100BEC0054FEFA21002000F035FA0020FFF7A8FA95
:100BFC000346012B0FD1FFF725FE724B0C221A6016
:100C0C00764B1B68714A1360724B03221A60FA21EF
:100C1C00002000F01FFA0120FFF792FA0346012B87
:100C2C000AD16A4B1B68622B03DC684B1B680133CF
:100C3C0000E00123654A13600220FFF781FA0346A6
:100C4C00012B40F0B180614B1B685F4A1360ABE035
:100C5C005B4B1B68012B0BD14021574800F015FE54
:100C6C001021564800F011FEFA21002000F0F2F994
:100C7C000020FFF765FA0346012B0FD1FFF7E2FDC9
:100C8C00504B0B221A60524B1B68504A1360514B4D
:100C9C0004221A60FA21002000F0DCF90120FFF791
:100CAC004FFA0346012B0AD1484B1B68622B03DC1D
:100CBC00464B1B68013300E00123444A13600220B9
:100CCC00FFF73EFA0346012B70D1404B1B68434A99
:100CDC0013606BE03A4B1B68012B0BD1802136481B
:100CEC0000F0D3FD2021354800F0CFFDFA21002083
:100CFC0000F0B0F90020FFF723FA0346012B2DD1A9
:100D0C00364B1A68324B1B681A442F4B1B689A429D
:100D1C0014D1314B1B68C3F101032F4A1360294BCB
:100D2C0000221A602E4B00221A600A21012000F0CA
:100D3C0091F91421022000F08DF90FE0FFF782FDEC
:100D4C00204B0A221A60204B1B68204A1360214B4F
:100D5C0002221A60FA21002000F07CF90120FFF732
:100D6C00EFF90346012B0AD1184B1B68622B03DCED
:100D7C00164B1B68013300E00123144A1360022058
:100D8C00FFF7DEF90346012B12D1104B1B68104AFA
:100D9C0013600DE000BF0CE000BF0AE000BF08E0EC
:100DAC0000BF06E000BF04E000BF02E000BF00E0AF
:100DBC0000BF00BF80BD00BF00080140000C014017
:100DCC00C4000020A800002050000020AC0000202F
:100DDC0058000020B00000205C00002054000020CF
:100DEC00B400002080B500AF00F036FA00F01CF81B
:100DFC0000F0A2F800F054F8094801F08BF9094B07
:100E0C0000221A600A21012000F024F90A21022094
:100E1C0000F020F9FFF73CFDFFF7DCFCFAE700BF20
:100E2C00D0000020A800002080B590B000AF07F1E2
:100E3C00180328220021184601F01CFD3B1D00223E
:100E4C001A605A609A60DA601A610223BB6101234E
:100E5C00BB621023FB6200237B6307F11803184667
:100E6C0000F02CFD0346002B01D000F0EDF80F2311
:100E7C007B600023BB600023FB6000233B610023ED
:100E8C007B613B1D0021184600F098FF0346002BA8
:100E9C0001D000F0D9F800BF4037BD4680BD00003E
:100EAC0080B586B000AF07F1080300221A605A60C3
:100EBC009A60DA603B4600221A605A601D4B4FF074
:100ECC0080421A601B4B41F63F725A60194B00224C
:100EDC009A60184B0922DA60164B00221A61154BE6
:100EEC0000229A61134801F0C5F80346002B01D08B
:100EFC0000F0AAF84FF48053BB6007F108031946C1
:100F0C000C4801F043FA0346002B01D000F09CF88A
:100F1C0000233B6000237B603B461946054801F0EB
:100F2C001BFC0346002B01D000F08EF800BF1837D5
:100F3C00BD4680BDD000002080B588B000AF07F161
:100F4C00100300221A605A609A60DA60344B9B6975
:100F5C00334A43F010039361314B9B6903F0100348
:100F6C00FB60FB682E4B9B692D4A43F00403936195
:100F7C002B4B9B6903F00403BB60BB68284B9B693C
:100F8C00274A43F008039361254B9B6903F0080340
:100F9C007B607B68002247F6EF71224800F05DFC15
:100FAC0000223821204800F058FC4FF400533B61DC
:100FBC0000237B610123BB6107F1100319461B4819
:100FCC0000F0BAFA47F6EF733B6101237B61002313
:100FDC00BB610223FB6107F110031946114800F0B5
:100FEC00ABFA03233B6100237B610123BB6107F157
:100FFC00100319460C4800F09FFA38233B6101237B
:10100C007B610023BB610223FB6107F110031946CE
:10101C00054800F091FA00BF2037BD4680BD00BFE7
:10102C000010024000080140000C0140001001407B
:10103C0080B582B000AF786000F02AF8FFF79AF81C
:10104C0000BF0837BD4680BD80B400AF72B600BF8C
:10105C00FEE7000080B483B000AF78603960094BC4
:10106C001B683A6892FBF3F207497B6841F823202E
:10107C00064A7B68002142F8231000BF0C37BD469E
:10108C0080BC704760000020B8000020C400002025
:10109C0080B483B000AF00237B601CE0124A7B68F5
:1010AC0052F82330002B13DD0F4A7B6852F82330A3
:1010BC005A1E0D497B6841F823200B4A7B6852F875
:1010CC002330002B04D1094A7B68012142F82310FC
:1010DC007B6801337B607B68022BDFDD00BF00BFC8
:1010EC000C37BD4680BC7047B8000020C4000020FF
:1010FC0080B485B000AF154B9B69144A43F00103D3
:10110C009361124B9B6903F00103BB60BB680F4BEF
:10111C00DB690E4A43F08053D3610C4BDB6903F05F
:10112C0080537B607B680A4B5B68FB60FB6823F039
:10113C00E063FB60FB6843F08063FB60044AFB6880
:10114C00536000BF1437BD4680BC7047001002408E
:10115C000000014080B584B000AF78607B681B68EC
:10116C00B3F1804F13D10C4BDB690B4A43F00103F5
:10117C00D361094BDB6903F00103FB60FB680022C0
:10118C0000211C2000F0A1F91C2000F0BAF900BFCE
:10119C001037BD4680BD00BF0010024080B400AFC8
:1011AC00FEE780B400AFFEE780B400AFFEE780B48A
:1011BC0000AFFEE780B400AFFEE780B400AF00BF25
:1011CC00BD4680BC704780B400AF00BFBD4680BC3C
:1011DC00704780B400AF00BFBD4680BC704780B57F
:1011EC0000AF00F07FF800BF80BD000080B500AFFD
:1011FC00024800F0DBFF00BF80BD00BFD000002024
:10120C0080B400AF00BFBD4680BC7047FFF7F8FF4D
:10121C000B480C490C4A002302E0D458C450043348
:10122C00C4188C42F9D3094A094C002301E013601D
:10123C000432A242FBD301F0F9FAFFF7D3FD704759
:10124C000000002070000020D4280008700000204E
:10125C001C010020FEE7000080B500AF084B1B68A6
:10126C00074A43F010031360032000F023F90F200A
:10127C0000F008F8FFF73CFF0023184680BD00BFC4
:10128C000020024080B582B000AF7860124B1A6823
:10129C00124B1B7819464FF47A73B3FBF1F3B2FB84
:1012AC00F3F3184600F03BF90346002B01D0012361
:1012BC000EE07B680F2B0AD8002279684FF0FF30C4
:1012CC0000F003F9064A7B681360002300E0012359
:1012DC0018460837BD4680BD640000206C00002015
:1012EC006800002080B400AF054B1B781A46054BF4
:1012FC001B681344034A136000BFBD4680BC704793
:10130C006C0000201801002080B400AF024B1B6859
:10131C001846BD4680BC70471801002080B485B0CB
:10132C0000AF78607B6803F00703FB600C4BDB6855
:10133C00BB60BA684FF6FF031340BB60FB681A0230
:10134C00BB68134343F0BF6343F40033BB60044AF0
:10135C00BB68D36000BF1437BD4680BC704700BF6C
:10136C0000ED00E080B400AF044BDB681B0A03F017
:10137C0007031846BD4680BC704700BF00ED00E077
:10138C0080B483B000AF0346FB7197F90730002B94
:10139C000BDBFB7903F01F02064997F907305B0959
:1013AC00012000FA02F241F8232000BF0C37BD46A1
:1013BC0080BC704700E100E080B483B000AF03460E
:1013CC003960FB7197F90730002B0ADB3B68DAB206
:1013DC000C4997F907301201D2B20B4483F8002361
:1013EC000AE03B68DAB20849FB7903F00F03043BCF
:1013FC001201D2B20B441A7600BF0C37BD4680BC2A
:10140C00704700BF00E100E000ED00E080B489B05F
:10141C0000AFF860B9607A60FB6803F00703FB610A
:10142C00FB69C3F10703042B28BF0423BB61FB69D1
:10143C000433062B02D9FB69033B00E000237B61DC
:10144C004FF0FF32BB6902FA03F3DA43BB681A4070
:10145C007B699A404FF0FF317B6901FA03F3D94362
:10146C007B680B40134318462437BD4680BC70473D
:10147C0080B582B000AF78607B68013BB3F1807FB0
:10148C0001D301230FE00A4A7B68013B53600F2113
:10149C004FF0FF30FFF790FF054B00229A60044B92
:1014AC0007221A60002318460837BD4680BD00BFCE
:1014BC0010E000E080B582B000AF78607868FFF78C
:1014CC002DFF00BF0837BD4680BD80B586B000AF8C
:1014DC000346B9607A60FB7300237B61FFF742FF20
:1014EC0078617A68B9687869FFF790FF024697F9D6
:1014FC000F3011461846FFF75FFF00BF1837BD4687
:10150C0080BD80B582B000AF0346FB7197F9073000
:10151C001846FFF735FF00BF0837BD4680BD80B5C4
:10152C0082B000AF78607868FFF7A2FF03461846D8
:10153C000837BD4680BD000080B48BB000AF78602A
:10154C00396000237B6200233B6248E101227B6A05
:10155C0002FA03F3FB613B681B68FA691340BB6139
:10156C00BA69FB699A4240F037813B685B68A34AD1
:10157C0093425ED0A14A934275D8A14A934258D067
:10158C009F4A93426FD89F4A934252D09D4A9342AE
:10159C0069D89D4A93424CD09B4A934263D89B4A4C
:1015AC00934246D0994A93425DD8122B2AD8122BDB
:1015BC0059D801A252F823F03F160008191600085A
:1015CC002B1600086D160008731600087316000819
:1015DC0073160008731600087316000873160008BB
:1015EC0073160008731600087316000873160008AB
:1015FC0073160008731600087316000821160008ED
:10160C0035160008824A934213D02CE03B68DB6805
:10161C003B6229E03B68DB6804333B6224E03B68B7
:10162C00DB6808333B621FE03B68DB680C333B62D2
:10163C001AE03B689B68002B02D104233B6213E049
:10164C003B689B68012B05D108233B627B68FA69D8
:10165C001A6109E008233B627B68FA695A6103E06E
:10166C0000233B6200E000BFBB69FF2B01D87B6805
:10167C0001E07B6804337B61BB69FF2B02D87B6A7A
:10168C009B0002E07B6A083B9B003B617B691A680C
:10169C000F213B6901FA03F3DB431A40396A3B69BA
:1016AC0001FA03F31A437B691A603B685B6803F029
:1016BC008053002B00F09080564B9B69554A43F0A9
:1016CC0001039361534B9B6903F00103BB60BB683F
:1016DC00514A7B6A9B08023352F82330FB607B6AC9
:1016EC0003F003039B000F2202FA03F3DB43FA68B7
:1016FC001340FB607B68494A93420DD07B68484A93
:10170C00934207D07B68474A934201D1022304E0FD
:10171C00032302E0012300E000237A6A02F00302B3
:10172C0092009340FA681343FB603B497B6A9B0829
:10173C000233FA6841F823203B685B6803F480139A
:10174C00002B06D0384B9A683749BB6913438B6022
:10175C0006E0354B9A68BB69DB43334913408B6019
:10176C003B685B6803F40013002B06D02E4BDA6841
:10177C002D49BB691343CB6006E02B4BDA68BB6980
:10178C00DB4329491340CB603B685B6803F40033AF
:10179C00002B06D0244B5A682349BB6913434B607A
:1017AC0006E0214B5A68BB69DB431F4913404B6071
:1017BC003B685B6803F48033002B06D01A4B1A6825
:1017CC001949BB6913430B6006E0174B1A68BB69D8
:1017DC00DB43154913400B607B6A01337B623B682A
:1017EC001A687B6A22FA03F3002B7FF4AFAE00BFBA
:1017FC0000BF2C37BD4680BC704700BF00003210C4
:10180C000000311000002210000021100000121006
:10181C0000001110001002400000014000080140BF
:10182C00000C0140001001400004014080B485B060
:10183C0000AF78600B467B807B689A687B8813408E
:10184C00002B02D00123FB7301E00023FB73FB7B15
:10185C0018461437BD4680BC704780B483B000AFC7
:10186C0078600B467B8013467B707B78002B03D013
:10187C007A887B681A6103E07B881A047B681A619A
:10188C0000BF0C37BD4680BC704780B485B000AF3C
:10189C0078600B467B807B68DB68FB607A88FB6832
:1018AC0013401A04FB68D9437B880B401A437B68AE
:1018BC001A6100BF1437BD4680BC704780B586B036
:1018CC0000AF78607B68002B01D101236CE27B6850
:1018DC001B6803F00103002B00F08780924B5B68C0
:1018EC0003F00C03042B0CD08F4B5B6803F00C0340
:1018FC00082B12D18C4B5B6803F48033B3F5803F1B
:10190C000BD1894B1B6803F40033002B6CD07B6824
:10191C005B68002B68D1012346E27B685B68B3F5FA
:10192C00803F06D1804B1B687F4A43F480331360A1
:10193C002EE07B685B68002B0CD17B4B1B687A4AD2
:10194C0023F480331360784B1B68774A23F480238D
:10195C0013601DE07B685B68B3F5A02F0CD1724B54
:10196C001B68714A43F4802313606F4B1B686E4AEB
:10197C0043F4803313600BE06B4B1B686A4A23F40F
:10198C0080331360684B1B68674A23F48023136011
:10199C007B685B68002B13D0FFF7B6FC386108E05E
:1019AC00FFF7B2FC02463B69D31A642B01D903231F
:1019BC00FAE15D4B1B6803F40033002BF0D014E00C
:1019CC00FFF7A2FC386108E0FFF79EFC02463B697A
:1019DC00D31A642B01D90323E6E1534B1B6803F4A0
:1019EC000033002BF0D100E000BF7B681B6803F0D4
:1019FC000203002B63D04C4B5B6803F00C03002BF1
:101A0C000BD0494B5B6803F00C03082B1CD1464BE5
:101A1C005B6803F48033002B16D1434B1B6803F037
:101A2C000203002B05D07B681B69012B01D001231D
:101A3C00BAE13D4B1B6823F0F8027B685B69DB0065
:101A4C00394913430B603AE07B681B69002B20D0AB
:101A5C00364B01221A60FFF757FC386108E0FFF79C
:101A6C0053FC02463B69D31A022B01D903239BE199
:101A7C002D4B1B6803F00203002BF0D02A4B1B6884
:101A8C0023F0F8027B685B69DB00274913430B608A
:101A9C0015E0264B00221A60FFF736FC386108E08F
:101AAC00FFF732FC02463B69D31A022B01D9032300
:101ABC007AE11D4B1B6803F00203002BF0D17B680D
:101ACC001B6803F00803002B3AD07B689B69002B42
:101ADC0019D0174B01221A60FFF716FC386108E089
:101AEC00FFF712FC02463B69D31A022B01D90323E0
:101AFC005AE10D4B5B6A03F00203002BF0D001207E
:101B0C0000F09AFA1CE00A4B00221A60FFF7FCFB6B
:101B1C0038610FE0FFF7F8FB02463B69D31A022B42
:101B2C0008D9032340E100BF0010024000004242EC
:101B3C00800442429E4B5B6A03F00203002BE9D106
:101B4C007B681B6803F00403002B00F0A6800023C5
:101B5C00FB75974BDB6903F08053002B0DD1944B35
:101B6C00DB69934A43F08053D361914BDB6903F0FB
:101B7C008053BB60BB680123FB758E4B1B6803F461
:101B8C008073002B18D18B4B1B688A4A43F48073EB
:101B9C001360FFF7B9FB386108E0FFF7B5FB0246AD
:101BAC003B69D31A642B01D90323FDE0814B1B68DD
:101BBC0003F48073002BF0D07B68DB68012B06D11B
:101BCC007B4B1B6A7A4A43F0010313622DE07B685E
:101BDC00DB68002B0CD1764B1B6A754A23F0010392
:101BEC001362734B1B6A724A23F0040313621CE0EA
:101BFC007B68DB68052B0CD16D4B1B6A6C4A43F080
:101C0C00040313626A4B1B6A694A43F001031362B3
:101C1C000BE0674B1B6A664A23F001031362644BAB
:101C2C001B6A634A23F0040313627B68DB68002B96
:101C3C0015D0FFF769FB38610AE0FFF765FB024638
:101C4C003B69D31A41F28832934201D90323ABE0AA
:101C5C00574B1B6A03F00203002BEED014E0FFF786
:101C6C0053FB38610AE0FFF74FFB02463B69D31A7E
:101C7C0041F28832934201D9032395E04C4B1B6A05
:101C8C0003F00203002BEED1FB7D012B05D1484B59
:101C9C00DB69474A23F08053D3617B68DB69002BF7
:101CAC0000F08180424B5B6803F00C03082B61D081
:101CBC007B68DB69022B46D13F4B00221A60FFF791
:101CCC0023FB386108E0FFF71FFB02463B69D31A80
:101CDC00022B01D9032367E0354B1B6803F000731B
:101CEC00002BF0D17B681B6AB3F5803F08D1304BD9
:101CFC005B6823F400327B689B682D4913434B606F
:101D0C002B4B5B6823F474127B68196A7B685B6AE3
:101D1C000B43274913434B60274B01221A60FFF7F3
:101D2C00F3FA386108E0FFF7EFFA02463B69D31A81
:101D3C00022B01D9032337E01D4B1B6803F0007302
:101D4C00002BF0D02FE01C4B00221A60FFF7DCFABE
:101D5C00386108E0FFF7D8FA02463B69D31A022B28
:101D6C0001D9032320E0124B1B6803F00073002BF6
:101D7C00F0D118E07B68DB69012B01D1012313E062
:101D8C000B4B5B68FB60FB6803F480327B681B6A5F
:101D9C009A4206D1FB6803F470127B685B6A9A4224
:101DAC0001D0012300E0002318461837BD4680BD42
:101DBC0000100240007000406000424280B584B0C8
:101DCC0000AF786039607B68002B01D10123D0E033
:101DDC006A4B1B6803F007033A689A4210D9674BA9
:101DEC001B6823F0070265493B6813430B60634B88
:101DFC001B6803F007033A689A4201D00123B8E04C
:101E0C007B681B6803F00203002B20D07B681B68E7
:101E1C0003F00403002B05D0594B5B68584A43F47C
:101E2C00E06353607B681B6803F00803002B05D04C
:101E3C00534B5B68524A43F460535360504B5B689E
:101E4C0023F0F0027B689B684D4913434B607B6821
:101E5C001B6803F00103002B40D07B685B68012BEF
:101E6C0007D1474B1B6803F40033002B15D101231A
:101E7C007FE07B685B68022B07D1414B1B6803F04A
:101E8C000073002B09D1012373E03D4B1B6803F059
:101E9C000203002B01D101236BE0394B5B6823F06B
:101EAC0003027B685B68364913434B60FFF72CFADF
:101EBC00F8600AE0FFF728FA0246FB68D31A41F2F1
:101ECC008832934201D9032353E02D4B5B6803F016
:101EDC000C027B685B689B009A42EBD1274B1B681A
:101EEC0003F007033A689A4210D2244B1B6823F084
:101EFC00070222493B6813430B60204B1B6803F01D
:101F0C0007033A689A4201D0012332E07B681B68D0
:101F1C0003F00403002B08D0194B5B6823F4E06238
:101F2C007B68DB68164913434B607B681B6803F0C6
:101F3C000803002B09D0124B5B6823F460527B68BA
:101F4C001B69DB000E4913434B6000F021F802467D
:101F5C000B4B5B681B0903F00F030A49CB5C22FA9D
:101F6C0003F3094A1360094B1B681846FFF78AF9FB
:101F7C00002318461037BD4680BD00BF002002402C
:101F8C0000100240A828000864000020680000200F
:101F9C0080B487B000AF0023FB600023BB6000233C
:101FAC007B6100237B6000233B611E4B5B68FB6005
:101FBC00FB6803F00C03042B02D0082B03D027E0A2
:101FCC00194B3B6127E0FB689B0C03F00F03174A8E
:101FDC00D35C7B60FB6803F48033002B10D0114B77
:101FEC005B685B0C03F00103114AD35CBB607B683C
:101FFC000D4A02FB03F2BB68B2FBF3F37B6104E016
:10200C007B680C4A02FB03F37B617B693B6102E05A
:10201C00054B3B6100BF3B6918461C37BD4680BC75
:10202C00704700BF0010024000127A00B828000868
:10203C00C828000800093D0080B485B000AF786066
:10204C000A4B1B680A4AA2FB03235B0A7A6802FB51
:10205C0003F3FB6000BFFB685A1EFA60002BF9D13A
:10206C0000BF00BF1437BD4680BC70476400002021
:10207C00D34D621080B582B000AF78607B68002BC6
:10208C0001D1012341E07B6893F83D30DBB2002B9A
:10209C0006D17B68002283F83C207868FFF75AF859
:1020AC007B68022283F83D207B681A687B680433C6
:1020BC001946104600F056FA7B68012283F8462038
:1020CC007B68012283F83E207B68012283F83F2045
:1020DC007B68012283F840207B68012283F8412031
:1020EC007B68012283F842207B68012283F843201D
:1020FC007B68012283F844207B68012283F8452009
:10210C007B68012283F83D20002318460837BD4622
:10211C0080BD000080B485B000AF78607B6893F818
:10212C003D30DBB2012B01D0012335E07B6802226C
:10213C0083F83D207B681B68DA687B681B6842F07B
:10214C000102DA607B681B68164A934209D07B68EF
:10215C001B68B3F1804F04D07B681B68124A934212
:10216C0011D17B681B689B6803F00703FB60FB685D
:10217C00062B10D07B681B681A687B681B6842F0C2
:10218C0001021A6007E07B681B681A687B681B6891
:10219C0042F001021A60002318461437BD4680BC79
:1021AC00704700BF002C01400004004080B584B093
:1021BC0000AF78607B681B68DB68FB607B681B6822
:1021CC001B69BB60BB6803F00203002B20D0FB68CB
:1021DC0003F00203002B1BD07B681B686FF002021C
:1021EC001A617B6801221A777B681B689B6903F074
:1021FC000303002B03D0786800F098F905E07868A9
:10220C0000F08BF9786800F09AF97B6800221A7755
:10221C00BB6803F00403002B20D0FB6803F004031D
:10222C00002B1BD07B681B686FF004021A617B6863
:10223C0002221A777B681B689B6903F44073002B9E
:10224C0003D0786800F072F905E0786800F065F961
:10225C00786800F074F97B6800221A77BB6803F089
:10226C000803002B20D0FB6803F00803002B1BD0C5
:10227C007B681B686FF008021A617B6804221A776E
:10228C007B681B68DB6903F00303002B03D07868C1
:10229C0000F04CF905E0786800F03FF9786800F040
:1022AC004EF97B6800221A77BB6803F01003002BF1
:1022BC0020D0FB6803F01003002B1BD07B681B683D
:1022CC006FF010021A617B6808221A777B681B6812
:1022DC00DB6903F44073002B03D0786800F026F917
:1022EC0005E0786800F019F9786800F028F97B6847
:1022FC0000221A77BB6803F00103002B0CD0FB689B
:10230C0003F00103002B07D07B681B686FF0010200
:10231C001A617868FEF78CFEBB6803F08003002B13
:10232C000CD0FB6803F08003002B07D07B681B6884
:10233C006FF080021A61786800F06FFABB6803F0E6
:10234C004003002B0CD0FB6803F04003002B07D09C
:10235C007B681B686FF040021A61786800F0F8F82F
:10236C00BB6803F02003002B0CD0FB6803F02003A8
:10237C00002B07D07B681B686FF020021A6178680D
:10238C0000F042FA00BF1037BD4680BD80B584B066
:10239C0000AF786039600023FB737B6893F83C30A6
:1023AC00012B01D10223B4E07B68012283F83C208D
:1023BC007B68022283F83D207B681B689B68BB60AE
:1023CC00BB6823F07703BB60BB6823F47F43BB601F
:1023DC007B681B68BA689A603B681B68B3F5005F42
:1023EC003ED0B3F5005F00F28780B3F5805F00F05C
:1023FC008680B3F5805F7FD8702B1AD0702B7BD87A
:10240C00602B50D0602B77D8502B3CD0502B73D8EE
:10241C00402B58D0402B6FD8302B64D0302B6BD83E
:10242C00202B60D0202B67D8002B5CD0102B5AD0DF
:10243C0062E07B6818683B6899683B685A683B683F
:10244C00DB6800F06AF97B681B689B68BB60BB6843
:10245C0043F07703BB607B681B68BA689A604FE0F7
:10246C007B6818683B6899683B685A683B68DB680E
:10247C0000F053F97B681B689A687B681B6842F410
:10248C0080429A603CE07B6818683B6859683B68FE
:10249C00DB681A4600F0CAF87B681B6850211846A6
:1024AC0000F021F92CE07B6818683B6859683B68A0
:1024BC00DB681A4600F0E8F87B681B686021184658
:1024CC0000F011F91CE07B6818683B6859683B68A0
:1024DC00DB681A4600F0AAF87B681B684021184696
:1024EC0000F001F90CE07B681A683B681B68194620
:1024FC00104600F0F8F803E00123FB7300E000BF86
:10250C007B68012283F83D207B68002283F83C2005
:10251C00FB7B18461037BD4680BD80B483B000AF3E
:10252C00786000BF0C37BD4680BC704780B483B068
:10253C0000AF786000BF0C37BD4680BC704780B4DC
:10254C0083B000AF786000BF0C37BD4680BC7047CD
:10255C0080B483B000AF786000BF0C37BD4680BC40
:10256C007047000080B485B000AF786039607B683C
:10257C001B68FB607B682B4A934207D07B68B3F1E6
:10258C00804F03D07B68284A934208D1FB6823F024
:10259C007003FB603B685B68FA681343FB607B6805
:1025AC00204A934207D07B68B3F1804F03D07B68FD
:1025BC001D4A934208D1FB6823F44073FB603B68CF
:1025CC00DB68FA681343FB60FB6823F080023B680E
:1025DC005B691343FB607B68FA681A603B689A6816
:1025EC007B68DA623B681A687B689A627B680D4A82
:1025FC00934203D13B681A697B681A637B6801229A
:10260C005A617B681B6903F00103002B05D07B68C2
:10261C001B6923F001027B681A6100BF1437BD46A9
:10262C0080BC7047002C01400004004080B487B08F
:10263C0000AFF860B9607A60FB681B6A7B61FB686D
:10264C001B6A23F00102FB681A62FB689B693B6101
:10265C003B6923F0F0033B617B681B013A69134330
:10266C003B617B6923F00A037B617A69BB68134386
:10267C007B61FB683A699A61FB687A691A6200BFF0
:10268C001C37BD4680BC704780B487B000AFF86083
:10269C00B9607A60FB681B6A7B61FB681B6A23F07C
:1026AC001002FB681A62FB689B693B613B6923F46F
:1026BC0070433B617B681B033A6913433B617B6945
:1026CC0023F0A0037B61BB681B017A6913437B6118
:1026DC00FB683A699A61FB687A691A6200BF1C3719
:1026EC00BD4680BC704780B485B000AF786039605F
:1026FC007B689B68FB60FB6823F07003FB603A68A7
:10270C00FB68134343F00703FB607B68FA689A602D
:10271C0000BF1437BD4680BC704780B487B000AF93
:10272C00F860B9607A603B60FB689B687B617B6991
:10273C0023F47F437B613B681A027B681A43BB68B6
:10274C0013437A6913437B61FB687A699A6000BF13
:10275C001C37BD4680BC704780B485B000AF786034
:10276C0039607B6893F83C30012B01D1022341E0A6
:10277C007B68012283F83C207B68022283F83D2091
:10278C007B681B685B68FB607B681B689B68BB6035
:10279C00FB6823F07003FB603B681B68FA6813430B
:1027AC00FB607B681B68FA685A607B681B68144A7C
:1027BC00934209D07B681B68B3F1804F04D07B68CF
:1027CC001B68104A93420CD1BB6823F08003BB609A
:1027DC003B685B68BA681343BB607B681B68BA686C
:1027EC009A607B68012283F83D207B68002283F885
:1027FC003C20002318461437BD4680BC704700BFF0
:10280C00002C01400004004080B483B000AF78601D
:10281C0000BF0C37BD4680BC704780B483B000AF9E
:10282C00786000BF0C37BD4680BC704770B5002681
:10283C000C4D0D4C641BA410A64209D100F022F8DB
:10284C0000260A4D0A4C641BA410A64205D170BD8B
:10285C0055F8043B98470136EEE755F8043B98478A
:10286C000136F2E7CC280008CC280008CC28000858
:10287C00D028000803460244934200D1704703F865
:10288C00011BF9E7F8B500BFF8BC08BC9E467047C1
:0C289C00F8B500BFF8BC08BC9E467047B1
:1028A80000000000000000000102030406070809F8
:1028B80002030405060708090A0B0C0D0E0F101079
:0428C8000102000009
:0428CC0031010008CE
:0428D0000D010008EE
:1028D400002001000200000000100140000C014033
:1028E400000C014001000000000000000000000096
:1028F40001000000000000000000000001000000D2
:1029040000000000000000000100000000000000C2
:102914000000000064000000640000006400000087
:102924000500000002000000030000000100000098
:102934000A00000000127A001000000001000000EC
:0400000508001219C4
:00000001FF
